:100000007CC081C080C07FC07EC07DC07CC07BC002
:100010007AC079C078C077C076C075C074C062C03D
:1000200027090061A086010062400D030061F049CC
:10003000020062F049020061400D030062A08601E7
:100040000061E09304006250C3000061C027090012
:1000500074A086010061E093040074400D03006108
:10006000E093040074E093040061F049020074C05E
:1000700027090061F0490200621027000061F04981
:10008000020074C0270900641027000074A08601D4
:1000900000641027000074A086010064102700008F
:1000A00074E093040061F0490200621027000061CF
:1000B000F049020074E093040061F049020062100C
:1000C00027000061400D03006250C3000061400D35
:1000D000030062F049020061F049020062400D0332
:1000E0000061A08601006290D003006150C300004F
:1000F00062C0270900300000000011241FBECFEDB0
:10010000CDBFBAD048C17CCF0CC020E030E0B59A5A
:100110002F5F3F4F28353105D1F761507040804047
:100120009040611571058105910579F708956F92E9
:100130007F928F929F92AF92BF92CF92DF92EF9277
:10014000FF920F931F93CF93DF9339014A01570119
:100150006801A8019701260D371D481D591DF9D0CA
:100160007901C0E0D0E00DC088B38C6088BBC401C9
:10017000B301CADF88B3837F88BBC601B501C4DF82
:100180002196CE15DF0581F7DF91CF911F910F9159
:10019000FF90EF90DF90CF90BF90AF909F908F90A7
:1001A0007F906F900895EF92FF920F931F9365E0F9
:1001B00070E0BDD09C01FC01E25EFF4F849182366D
:1001C000A1F487E48DBDF901E15EFF4F6591759162
:1001D000859194912CE231E040E050E0BBE2EB2EBF
:1001E000B1E0FB2E012D112D41C08136A1F489E42F
:1001F0008DBDF901E15EFF4F6591759185919491F7
:100200002EEC31E040E050E0AEECEA2EA1E0FA2E18
:10021000012D112D2BC08437A1F48BE48DBDF90184
:10022000E15EFF4F659175918591949124EB33E0E8
:1002300040E050E0F5EBEF2EF3E0FF2E012D112D05
:1002400015C08436A1F48CE48DBDF901E15EFF4F49
:10025000659175918591949122E837E040E050E0F6
:10026000E3E8EE2EE7E0FE2E012D112D60DF1F9159
:100270000F91FF90EF900895CF93DF9380916000EE
:1002800090916100892BD1F481E090E0909361001E
:100290008093600083B7887F83BF80B7807F80BFF3
:1002A00085B7806285BF85B7806185BF60E177E2F1
:1002B00080E090E029DF18BA17BA889510926100A3
:1002C0001092600019BE8FE087BB18BA82E48ABD25
:1002D00084E083BF8DE489BD89E980BFC0E0D0E0C0
:1002E00003C0CE0160DF2196CE0165E070E01FD033
:1002F000FC01E25EFF4FE491E03399F783B7887F1A
:1003000083BF80B7807F80BF85B7806285BF85B798
:10031000806185BF60E177E280E090E0F5DE18BAA9
:1003200017BA889580E090E0DF91CF910895552726
:10033000002480FF02C0060E571F660F771F61154D
:10034000710521F096958795009799F7952F802D47
:100350000895A1E21A2EAA1BBB1BFD010DC0AA1F06
:10036000BB1FEE1FFF1FA217B307E407F50720F01E
:10037000A21BB30BE40BF50B661F771F881F991F99
:100380001A9469F760957095809590959B01AC01E2
:0A039000BD01CF010895F894FFCFDE
:00000001FF
